{
  "_format": "hh-sol-artifact-1",
  "contractName": "SimpleCounter",
  "sourceName": "contracts/SimpleCounter.sol",
  "abi": [
    {
      "inputs": [],
      "stateMutability": "nonpayable",
      "type": "constructor"
    },
    {
      "inputs": [],
      "name": "counter",
      "outputs": [
        {
          "internalType": "uint256",
          "name": "",
          "type": "uint256"
        }
      ],
      "stateMutability": "view",
      "type": "function"
    },
    {
      "inputs": [],
      "name": "getCounter",
      "outputs": [
        {
          "internalType": "uint256",
          "name": "",
          "type": "uint256"
        }
      ],
      "stateMutability": "view",
      "type": "function"
    },
    {
      "inputs": [],
      "name": "increment",
      "outputs": [],
      "stateMutability": "nonpayable",
      "type": "function"
    }
  ],
  "bytecode": "0x608060405234801561001057600080fd5b506001600081905550610195806100286000396000f3fe608060405234801561001057600080fd5b50600436106100415760003560e01c806361bc221a146100465780638ada066e14610064578063d09de08a14610082575b600080fd5b61004e61008c565b60405161005b91906100cd565b60405180910390f35b61006c610092565b60405161007991906100cd565b60405180910390f35b61008a61009b565b005b60005481565b60008054905090565b6000808154809291906100ad90610117565b9190505550565b6000819050919050565b6100c7816100b4565b82525050565b60006020820190506100e260008301846100be565b92915050565b7f4e487b7100000000000000000000000000000000000000000000000000000000600052601160045260246000fd5b6000610122826100b4565b91507fffffffffffffffffffffffffffffffffffffffffffffffffffffffffffffffff8203610154576101536100e8565b5b60018201905091905056fea264697066735822122033f86c4830501455cef8e3560279f8986047f6ff9373b1a7ca31e7e78bf9d6d764736f6c63430008180033",
  "linkReferences": {},
  "deployedLinkReferences": {}
}